:10000300B4A5C3FEB2E2CAD43A0000000000000067
:1000130000000000000000000000000000101010AD
:10002300101010100000181800000000000000005D
:100033001428285000000000000000000014147E63
:100043001414287E28282800000000001038545477
:100053005030181454543810100000000044A4A861
:10006300A850142A2A4A44000000000000205050DF
:10007300507CA8A8988876000000000000000000CB
:1000830018180830000000000000000004081010D9
:100093002020202020101008040000002010080851
:1000A30004040404040808102000000000001010D9
:1000B300D63838D6101000000000000000000010F1
:1000C3001010FE10101000000000000000000000DF
:1000D30018180830000000000000000000000000B5
:1000E3000000FE000000000000000000000000000F
:1000F30000181800000000000000000002040404BF
:10010300080810101020204040000000001824426E
:1001130042424242422418000000000000107010C6
:100123001010101010107C0000000000003C424230
:100133000204081020427E0000000000003C4242FE
:100143000418040242423C000000000000080818A2
:100153002848487E08081E0000000000007E40403A
:100163005C62020242423C0000000000001C24408A
:10017300405C624242423C0000000000007E444476
:10018300080810101010100000000000003C42424C
:10019300423C244242423C000000000000384442FA
:1001A30042463A0202243800000000000000001812
:1001B30018000000181800000000000000000800EC
:1001C30000000000080810000000000000020408FE
:1001D300102040201008040200000000000000006E
:1001E300FE0000FE000000000000000000402010A0
:1001F300080402040810204000000000003C4242B2
:100203004202040808001818000000000038449A4D
:10021300AAAAAAAAB4423C000000000000101028B9
:100223002828287C4444EE000000000000FC4242E1
:10023300447844424242FC0000000000003E4282F7
:1002430080808080824438000000000000F844422F
:10025300424242424244F8000000000000FC42488F
:10026300487848484042FC000000000000FC424837
:10027300487848484040E00000000000003C4484C7
:100283008080808E844438000000000000EE4444E7
:10029300447C44444444EE0000000000007C101001
:1002A3001010101010107C00000000003E08080819
:1002B30008080808080888F00000000000EE444819
:1002C300507050484844EE000000000000E04040F9
:1002D300404040404042FE000000000000EE6C6CD5
:1002E3006C5454545454D6000000000000EE64646F
:1002F3005454544C4C4CE400000000000038448239
:1003030082828282824438000000000000FC424264
:10031300427C40404040E00000000000003844823E
:1003230082828282B24C38060000000000F8444406
:10033300447850484844E60000000000003E424232
:1003430040300C0242427C000000000000FE92108C
:1003530010101010101038000000000000EE44448C
:1003630044444444444438000000000000EE444444
:1003730044282828281010000000000000D65454F8
:1003830054546C28282828000000000000EE44285C
:10039300281010282844EE000000000000EE44441A
:1003A300282810101010380000000000003E4404FC
:1003B3000808101020227E00000000003C202020AE
:1003C30020202020202020203C000000404020202E
:1003D3001010100808040404020000003C04040484
:1003E30004040404040404043C00000000000000AE
:1003F30000182400000000000000000000000000BE
:100403000000FE00000000000000000000000000EB
:100413000030080000000000000000000000003869
:10042300441C2444443E00000000000000C040403F
:100433005C62424242427C00000000000000001C5B
:1004430022404040221C000000000000000C040475
:100453007C848484848C7600000000000000003CCF
:10046300427E4040423C000000000000000E12109B
:100473007C10101010107C000000000000003E44AF
:100483004438403C42423C000000000000C0404071
:100493005C6242424242E70000000000003030004C
:1004A3007010101010107C00000000000C0C001CD9
:1004B30004040404040444780000000000C0404025
:1004C3004E4850684844EE000000000000701010D1
:1004D3001010101010107C0000000000000000F845
:1004E3005454545454D6000000000000000000DCB3
:1004F3006242424242E70000000000000000001890
:100503002442424224180000000000000000DC6284
:10051300424242427C40E0000000000000007C8434
:100523008484848C74040E0000000000000000EE3C
:100533003220202020F80000000000000000003CD2
:10054300444038044478000000000000000010100C
:100553007C10101010100C0000000000000000C6FA
:1005630042424242463B000000000000000000E718
:10057300422424281010000000000000000000D6D0
:100583005454542828280000000000000000006E86
:100593002418181824760000000000000000E74229
:1005A300242428181010E000000000000000007E42
:1005B30044081010227E00000000000018101010E4
:1005C3001010201010101010180000101010101030
:1005D3001010101010101010101000003010101018
:1005E3001010081010101010300000000000000060
:1005F3000062928C000000000000D6A701000100F9
:1006030001007FFE010001001FF8081004200420F0
:100613000240018002400C30700E0004B3D610403B
:10062300104013FCFC40104017FE1410181037FE46
:10063300D010111010D01090101050502020B8F787
:100643000400040007F00C201220624001800660C1
:10065300181EEFF408100810081008100FF000001F
:10066300D6D606207820082008207DFC09241D24E6
:100673001B2429FC2924482088200820082008203E
:100683000820B5A50820063004403FF821083FF8AC
:10069300210821083FF821080100FFFE01000100A5
:1006A30001000100C6AC00401040104010441FFE82
:1006B3001000100010001FF0101010101010201068
:1006C300201040108010BBFA100010F81088FE882C
:1006D3001088108838883488548850889108110A03
:1006E300120A120A14061000CCE1100011F81108C6
:1006F300FDF8110811F8180037FC50409240127CA5
:100703001240164015C0587E2000B9A910001910D8
:100713001110211037FC6110A110211021102FFEA0
:10072300212023102218240C28082000D1DD40802A
:10073300204027FE040483F8504013F8224823F88E
:100743002248C24843F84000411041084208CABE4B
:1007530000001FF80000000000007FFE0100010000
:10076300112011102108410C810401000500020031
:10077300B3CC0DF8710811081108FD0811F8300009
:100783003BFC5440504093FC10401040104017FE77
:100793001000D0F2010000803FFE200027F8211056
:1007A30020A020402FFE20442040204020404040F5
:1007B30041408080B4A520103F10211042107F7C5F
:1007C300C9547F54495449547F7C491049144912F0
:1007D300491E85F20200C3FE1110111017FEF91015
:1007E30013F812081BF83208D3F8104017FE104014
:1007F30010A01098510E2604B2E2400227C22442F0
:100803008452455255521552255225522552C552EE
:10081300410242824242444A4804CAD4002040284A
:100823002024302427FE0020E02027E0212021106F
:0C0833002110210A29CA3606200200000C
:0D1046007D047C027E001210647FE87E03B2
:0B105300EF1FAC0670011E4C70F6226F
:100F770090002AE0FCA3E0FD90001FE02DFD90000B
:0B0F87001EE03CFC12102C7F227E00BC
:100F9200AD07AC06C290ECF5A0AF058F80C293C23C
:060FA20094D293D29422C8
:05101100E0FEA3E0FF7A
:10101600AD07AC06D290C294ECF5A0AF058F80C2A6
:0610260093D293D2942244
:06105E007F4FE4FDFCFEE3
:0E106400AB05AA04120F92AE02AF03021016E3
:1009F6007D017C00E4FFFE12104C7DA47CA87F03E1
:100A060012104AE4FDFC7F0CFE12104C7D0C7C0893
:100A16007F0D12104A7D007C2B7F0E12104A7DB08E
:100A26007C007F1E12104A7D3F7C2B7F0112104AEC
:100A36007D007C067F0212104AE4FDFC7F10FE1248
:100A4600104C7D707C607F1112104AE4FDFC7F051E
:100A5600FE12104CE4FDFC7F06FE12104C7D1C7C41
:100A6600EF7F1612104A7D037C007F1712104A7D15
:100A7600337C027F0712104AE4FDFC7F0BFE121046
:100A86004CE4FDFC7F0FFE12104CE4FDFC7F41FEA2
:100A960012104CE4FDFC7F42FE12104CE4FDFC7F7C
:100AA60048FE12104C7D3F7C017F4912104AE4FD3E
:100AB600FC7F4AFE12104CE4FDFC7F4BFE12104CEC
:100AC6007D007CEF7F4412104AE4FDFC7F45FE1258
:100AD600104C7D3F7C017F4612104A7407FDFC7F57
:100AE6003012104A7F311210467F321210467D02B4
:100AF6007C057F3312104A7D077C057F3412104A2D
:100B06007D047C027F3512104A7D047C027F3612FA
:100B1600104A7D027C057F3712104A7D027C037FD6
:100B26003A12104A7D027C037F3B12104AE4FDFC18
:100B36007F23FE12104CE4FDFC7F24FE12104C7D38
:100B4600007C807F2512104A12105EE4FDFC7F4E69
:040B5600FE02106427
:080F2B00900007EEF0A3EFF0C7
:100F330012105E7F4E121060120F8EE4A3F0A3F026
:100F4300E4FBFA9000071210110BBB00010AEB64DB
:100F5300F04A70EF90000AE004F07006900009E098
:100F630004F0C390000AE09440900009E064809488
:030F73008140CDED
:010F76002258
:07107E007F1F7E00020F2B13
:10102C008F828E837F4F7E00121064AE83AF82ADB1
:0A103C0007AC067F4E7E0002106430
:0E0B5A0090001CEEF0A3EFF0A3ECF0A3EDF082
:100B6800120C3924E0FFE434FFFEEFC4F8540FC838
:100B780068FFEEC454F04890002AF0A3EFF0E4F9BF
:100B880090001CE0FEA3E0FFE9FD90001FE02DFDB2
:100B980090001EE03400120F8A90002AE0FEA3E0C5
:100BA800240DF58274003EF583E58229F582E4354B
:100BB80083F583E493900029F0E4900028F09000F6
:100BC80028E0FFC39408505F74807E00A80708805F
:100BD80006CEA2E713CE13D8F8FF900029E0FDEF68
:100BE8005D60059000238009900027E07008900060
:100BF800251210118029900028E0FF90001DE02F99
:100C0800FF90001CE03400CF2401CF3400FEE9FD42
:100C180090001FE02DFD90001EE03400120F8A9016
:100C28000028E004F0809709E964106003020B884B
:010C38002299
:0E083F0090001CEEF0A3EFF0A3ECF0A3EDF0A0
:10084D00E4900028F0A3F0A3F0A3F0A3F0A3F090A0
:10085D000030F0A37411F0E4900028F0A3F09000A4
:10086D0028E0FEA3E0FFC39411EE94005051120C4A
:10087D0039FD9005FD75F022EF120D09EE75F02290
:10088D00A42583F583E493B50525900001120C5240
:10089D00FF900028E0FCA3E09005FE75F022120DFC
:1008AD0009EC75F022A42583F583E4936F60109015
:1008BD000029E004F070A7900028E004F0809F90DC
:1008CD000030E0FEA3E0FFC3900029E09F900028D8
:1008DD00E09E40030209F5E490002AF0A3F0900099
:1008ED001CE0FEA3E0FF120F7790002AE0FCA3E0CE
:1008FD00FD25E0FFEC33FE900028E0FAA3E0900523
:10090D00FF75F022120D09EA75F022A42583F583F7
:10091D00E5822FF582E5833EF583E493FAED25E03C
:10092D00FFEC33FE900028E0FCA3E090060075F08C
:10093D0022120D09EC75F022A42583F583E5822F93
:10094D00F582E5833EF583E493FFEAFE90002EEEFB
:10095D00F0A3EFF0E490002CF0A3F090002CE0FE5B
:10096D00A3E0FFC39410EE9400505DE47E80A807D1
:10097D00088005CEC313CE13D8F9FF90002EE05E8C
:10098D00FEA3E05F4E60059000238009900027E0F4
:10099D007008900025121011801D90002CE0FEA310
:1009AD00E0FF90001DE02FFF90001CE03ECF2401E2
:1009BD00CF3400FE120F7790002DE004F0700690FA
:1009CD00002CE004F002096890002BE004F07006A2
:1009DD0090002AE004F0C390002BE0941090002AC0
:0809ED00E0940050030208EB46
:0109F50022DF
:100D1500900010EEF0A3EFF0A3ECF0A3EDF0A3EB41
:100D2500F0A3EAF0A3E9F0900014E0FBA3E0FAA336
:100D3500E0F9120C39FF7003020DE9EFD3948090AE
:100D45000012E0FCA3E0FD4048900017E0FFA3E09F
:100D5500900023CFF0A3EFF0900019E0FFA3E090FF
:100D65000025CFF0A3EFF090001BE0900027F09056
:100D75000010E0FEA3E0FF12083F900011E02410F0
:100D8500F0900010E03400F0900015E475F002805A
:100D95004DA3E0FBA3E0FAA3E0F9A3E0FFA3E090F5
:100DA5000023CFF0A3EFF0900019E0FFA3E090003F
:100DB50025CFF0A3EFF090001BE0900027F0900006
:100DC50010E0FEA3E0FF120B5A900011E02408F09A
:100DD500900010E03400F0900015E475F001120C5D
:050DE500D4020D2C22D8
:0B0DEA00E0FAA3E0FB7C007F687E00C5
:0E0DF500900007EEF0A3EFF0A3ECF0A3EDF0FA
:100E03007C037DE8AF03AE02120C7FEF2430A3F026
:100E13007C037DE8AF03AE02120C7F7E007F64CFBC
:100E2300CDCFCECCCE120C7FEF2430A3F07C037D4C
:100E3300E8AF03AE02120C7F7E007F64CFCDCFCE2E
:100E4300CCCE120C7F7E007F0ACFCDCFCECCCE127C
:100E53000C7FEF2430A3F0AE02AF037C037DE812D6
:100E63000C7F7E007F64CFCDCFCECCCE120C7F7EA5
:100E7300007F0ACFCDCFCECCCE120C7FED2430A392
:100E8300F0E4A3F0900007E0FEA3E0FFA3E0FCA3DF
:100E9300E0FD7B017A00790BE4900017F0A3F0A347
:0D0EA30074FFF0A374E0F0E4A3F0020D155D
:07108500D295D296D297220A
:100FCD00E4FFFEC297D296FDC296EF25E0FFEE3309
:100FDD00FE30B3050FBF00010ED2960DEDB40CE837
:020FED00D2959B
:010FEF0022DF
:100FA800D295C297C296C295E4FEEF30E704D29775
:100FB8008002C297EF25E0FFD296C2960EEEB408E3
:040FC800E9120FCD4E
:010FCC002202
:100FF0007F90120FA8EE8FF0120CEA7FD0120FA88C
:1010000090000AE0FBA3E0FAA3E0F9EE8FF0020CF7
:01101000EAF5
:100EB000900000E4F0A37403F0A3E4F0A37404F042
:100EC000E4A3F0A3F0A3F0C29212104FD2927F10CD
:100ED0007E271210531209F612108512107E120F7F
:100EE0008E7BFF7A00790374FF900017F0A3F0A3C4
:100EF00074F8F0A3E4F0A3F0FDFC7F54120D15206C
:100F0000B2FD90000A7401F0A37400F0A37402F023
:100F10007B017A007900120FF09000007D14120D11
:0B0F2000EA9000027D28120DEA80D448
:0300000002107279
:0C107200787FE4F6D8FD758107020EB00F
:100C3900BB010689828A83E0225002E722BBFE02B9
:090C4900E32289828A83E49322EC
:100C5200BB010CE58229F582E5833AF583E0225057
:100C620006E92582F8E622BBFE06E92582F8E222A1
:0D0C7200E58229F582E5833AF583E49322BB
:100C7F00BC000BBE0029EF8DF084FFADF022E4CC59
:100C8F00F875F008EF2FFFEE33FEEC33FCEE9DEC22
:100C9F00984005FCEE9DFE0FD5F0E9E4CEFD22ED68
:100CAF00F8F5F0EE8420D21CFEADF075F008EF2FB2
:100CBF00FFED33FD4007985006D5F0F222C398FDA3
:050CCF000FD5F0EA2240
:100CD400C5F0F8A3E028F0C5F0F8E58215827002AB
:060CE4001583E038F02248
:100CEA00BB010A89828A83F0E5F0A3F0225006F755
:0F0CFA0009A7F01922BBFE06F3E5F009F3192252
:0C0D0900A42582F582E5F03583F58322F5
:00000001FF
