:100003005757572E54584D43552E434F4D00BBB6AB
:10001300D3ADB7C3CECACCECCFE9B5E7D7D3210074
:10002300CCECCFE9CAD3C6B5D6FAC4FAB3C9BECDB0
:10003300B5A5C6ACBBFAC3CECFEB210000000000D0
:10004300000000000000000000000000000000109D
:10005300101010101010000018180000000000000D
:1000630000001428285000000000000000000014C5
:10007300147E1414287E282828000000000010385D
:1000830054545030181454543810100000000044D5
:10009300A4A8A850142A2A4A440000000000002003
:1000A3005050507CA8A898887600000000000000FB
:1000B30000001818083000000000000000000408C9
:1000C3001010202020202010100804000000201011
:1000D30008080404040404080810200000000000B9
:1000E3001010D63838D610100000000000000000B1
:1000F30000101010FE10101000000000000000009F
:100103000000181808300000000000000000000084
:1001130000000000FE0000000000000000000000DE
:100123000000001818000000000000000000020496
:10013300040408081010102020404000000000189C
:1001430024424242424242241800000000000010B0
:1001530070101010101010107C0000000000003C04
:1001630042420204081020427E0000000000003CCE
:1001730042420418040242423C000000000000080E
:1001830008182848487E08081E0000000000007E6A
:1001930040405C62020242423C0000000000001C3E
:1001A3002440405C624242423C0000000000007E6A
:1001B3004444080810101010100000000000003C18
:1001C3004242423C244242423C00000000000038CC
:1001D300444242463A020224380000000000000074
:1001E30000181800000018180000000000000000AC
:1001F30008000000000008081000000000000002D2
:100203000408102040201008040200000000000031
:100213000000FE0000FE000000000000000000409F
:100223002010080402040810204000000000003CD5
:100233004242420204080800181800000000003877
:10024300449AAAAAAAAAB4423C00000000000010E3
:1002530010282828287C4444EE000000000000FCFD
:100263004242447844424242FC0000000000003E07
:10027300428280808080824438000000000000F8C1
:100283004442424242424244F8000000000000FC63
:100293004248487848484042FC000000000000FC07
:1002A3004248487848484040E00000000000003CD5
:1002B30044848080808E844438000000000000EE77
:1002C3004444447C44444444EE0000000000007C69
:1002D30010101010101010107C00000000003E08D9
:1002E300080808080808080888F00000000000EE65
:1002F3004448507050484844EE000000000000E0BD
:100303004040404040404042FE000000000000EEFC
:100313006C6C6C5454545454D6000000000000EE2E
:1003230064645454544C4C4CE40000000000003806
:10033300448282828282824438000000000000FCF2
:100343004242427C40404040E00000000000003850
:10035300448282828282B24C38060000000000F898
:100363004444447850484844E60000000000003EFE
:10037300424240300C0242427C000000000000FE7A
:10038300921010101010101038000000000000EE42
:10039300444444444444444438000000000000EE14
:1003A300444444282828281010000000000000D6E8
:1003B300545454546C28282828000000000000EEF0
:1003C3004428281010282844EE000000000000EE06
:1003D3004444282810101010380000000000003E8C
:1003E30044040808101020227E00000000003C2076
:1003F300202020202020202020203C0000004040FE
:1004030020201010100808040404020000003C041B
:10041300040404040404040404043C000000000075
:10042300000000182400000000000000000000008D
:1004330000000000FE0000000000000000000000BB
:100443000000003008000000000000000000000071
:100453000038441C2444443E00000000000000C057
:1004630040405C62424242427C00000000000000C7
:10047300001C22404040221C000000000000000C31
:1004830004047C848484848C7600000000000000D3
:10049300003C427E4040423C000000000000000E51
:1004A30012107C10101010107C00000000000000DF
:1004B3003E444438403C42423C000000000000C03F
:1004C30040405C6242424242E700000000000030CC
:1004D30030007010101010107C00000000000C0C95
:1004E300001C04040404040444780000000000C059
:1004F30040404E4850684844EE0000000000007041
:1005030010101010101010107C00000000000000EC
:1005130000F85454545454D6000000000000000066
:1005230000DC6242424242E700000000000000009B
:10053300001824424242241800000000000000007A
:10054300DC62424242427C40E000000000000000C6
:100553007C848484848C74040E00000000000000FA
:1005630000EE3220202020F80000000000000000F0
:10057300003C4440380444780000000000000000C0
:1005830010107C10101010100C0000000000000070
:1005930000C642424242463B000000000000000009
:1005A30000E742242428101000000000000000008F
:1005B30000D65454542828280000000000000000EE
:1005C300006E2418181824760000000000000000B4
:1005D300E742242428181010E00000000000000067
:1005E300007E44081010227E000000000000181056
:1005F3001010101020101010101018000010101000
:1006030010101010101010101010101000003010E7
:10061300101010100810101010103000000000000F
:1006230000000062928C000000000000D6A70100C9
:10063300010001007FFE010001001FF808100420E3
:1006430004200240018002400C30700E0004B3D637
:100653001040104013FCFC40104017FE14101810FB
:1006630037FED010111010D01090101050502020D1
:10067300B8F70400040007F00C2012206240018048
:100683000660181EEFF408100810081008100FF089
:100693000000D6D606207820082008207DFC0924F7
:1006A3001D241B2429FC29244820882008200820F5
:1006B30008200820B5A50820063004403FF821088B
:1006C3003FF8210821083FF821080100FFFE01003F
:1006D300010001000100C6AC00401040104010446E
:1006E3001FFE1000100010001FF01010101010104B
:1006F3002010201040108010BBFA100010F8108852
:10070300FE88108810883888348854885088910867
:10071300110A120A120A14061000CCE1100011F893
:100723001108FDF8110811F8180037FC50409240E9
:10073300127C1240164015C0587E2000B9A9100043
:1007430019101110211037FC6110A1102110211074
:100753002FFE212023102218240C28082000D1DD8D
:100763004080204027FE040483F8504013F82248B9
:1007730023F82248C24843F8400041104108420888
:10078300CABE00001FF80000000000007FFE010049
:100793000100112011102108410C81040100050002
:1007A3000200B3CC0DF8710811081108FD0811F807
:1007B30030003BFC5440504093FC1040104010402C
:1007C30017FE1000D0F2010000803FFE200027F842
:1007D300211020A020402FFE204420402040204014
:1007E300404041408080B4A520103F1021104210AA
:1007F3007F7CC9547F54495449547F7C4910491420
:100803004912491E85F20200C3FE1110111017FE92
:10081300F91013F812081BF83208D3F8104017FE2A
:10082300104010A01098510E2604B2E2400227C2D5
:10083300244284524552555215522552255225526F
:10084300C552410242824242444A4804CAD400206B
:1008530040282024302427FE0020E02027E0212008
:1008630021102110210A29CA360620020000BBB636
:1008730000800080FC8005FE85044A482840104023
:100883001840186024A024904118860E38040000F4
:10089300D3AD40002180367C244404440444E44422
:1008A30024442544265424482040204050008FFEF1
:1008B3000000B7C340802060304027FE0040004066
:1008C300F07C104410841084108415041904123829
:1008D30004100000CECA10000BFC080420042004FE
:1008E30027E424242424242427E4200420042004AB
:1008F300200420142008CCEC00003FFC0100010080
:10090300010001007FFE010001000280024004207B
:100913000818100E20044000CFE92104108810505D
:10092300FDFE0420082011FC38205420942013FEDF
:1009330010201020102010201020B5E70100010026
:1009430001003FF8210821083FF821082108210868
:100953003FF821080102010200FE0000D7D3000086
:100963003FF0002000400080010001000104FFFE71
:100973000100010001000100010005000200CAD3CB
:10098300200019FC1104FD24052409241124292421
:10099300552496541450109010921112120E1400F4
:1009A300C6B5080008FE4E20484048FCFE8400A45B
:1009B30008A44AA44AA484A4085010482086C30269
:1009C3000000D6FA00203E202220222022FC3E24D2
:1009D300222422243E24222422442744F88401147E
:1009E30002080000C4FA0800090011FE1204344092
:1009F3003250524894441144108000002904289234
:100A0300681207F00000B3C900A0009000803FFE09
:100A1300208020803E88228C2248225022202A6077
:100A23004492410A86060002BECD10200828FF2406
:100A3300002400207FFE425042507E5008502C502C
:100A43002A904A9289122A0E1000C3CE0820082049
:100A53007EFE08301C682AAECB240C2007F8081051
:100A63000C203240018003000C007000CFEB10001B
:100A730010FC1084FEFC388434FC5484508490FCB5
:0E0A83000000010008842882281267F000009D
:0D1467007D047C027E001214857FE87E0368
:0B147400EF1FAC0670011E4C70F6224A
:10141C00900020E0FCA3E0FD900015E02DFD900075
:0B142C0014E03CFC12144D7F227E00F7
:10143700AD07AC06C290ECF5A0AF058F80C293C292
:0614470094D293D294221E
:1013E800900000F0A3E075F020A4FD900000E03329
:0E13F800333354F845F0FEEDFFE9FDEF4DFFF5
:10140600AD07AC06D290C294ECF5A0AF058F80C2B2
:0614160093D293D2942250
:06147F007F4FE4FDFCFEBE
:0E148500AB05AA04121437AE02AF0302140620
:100F02007D017C00E4FFFE12146D7DA47CA87F03AA
:100F120012146BE4FDFC7F0CFE12146D7D0C7C0838
:100F22007F0D12146B7D007C2B7F0E12146B7DB033
:100F32007C007F1E12146B7D3F7C2B7F0112146B91
:100F42007D007C067F0212146BE4FDFC7F10FE1212
:100F5200146D7D707C607F1112146BE4FDFC7F05C3
:100F6200FE12146DE4FDFC7F06FE12146D7D1C7CE6
:100F7200EF7F1612146B7D037C007F1712146B7DBA
:100F8200337C027F0712146BE4FDFC7F0BFE12140C
:100F92006DE4FDFC7F0FFE12146DE4FDFC7F41FE4B
:100FA20012146DE4FDFC7F42FE12146DE4FDFC7F21
:100FB20048FE12146D7D3F7C017F4912146BE4FDE3
:100FC200FC7F4AFE12146DE4FDFC7F4BFE12146D91
:100FD2007D007CEF7F4412146BE4FDFC7F45FE1222
:100FE200146D7D3F7C017F4612146B7407FDFC7FFC
:100FF2003012146B7F311214677F321214677D0234
:101002007C057F3312146B7D077C057F3412146BD1
:101012007D047C027F3512146B7D047C027F3612C4
:10102200146B7D027C057F3712146B7D027C037F7B
:101032003A12146B7D027C037F3B12146BE4FDFCBD
:101042007F23FE12146DE4FDFC7F24FE12146D7DDD
:10105200007C807F2512146B12147FE4FDFC7F4E0E
:04106200FE021485F1
:08139700900006EEF0A3EFF058
:10139F0012147F7F4E121481121433E4A3F0A3F0C2
:1013AF00E4FBFA900006E0FEA3E0FF1214060BBB6D
:1013BF0000010AEB64F04A70EA900009E004F07053
:1013CF0006900008E004F0C3900009E094409000FC
:0813DF0008E06480948140C81D
:0113E70022E3
:07149F007F1F7E000213977E
:10144D008F828E837F4F7E00121485AE83AF82AD67
:0A145D0007AC067F4E7E00021485E6
:0E106600900012EEF0A3EFF0A3ECF0A3EDF07B
:1010740012121F24E0FFE434FFFEEFC4F8540FC83B
:1010840068FFEEC454F048900020F0A3EFF0E4F9B8
:10109400900012E0FEA3E0FFE9FD900015E02DFDB5
:1010A400900014E0340012142F900020E0FEA3E01E
:1010B400243FF58274003EF583E58229F582E43508
:1010C40083F583E49390001FF0E490001EF09000F9
:1010D4001EE0FFC39408506474807E00A807088053
:1010E40006CEA2E713CE13D8F8FF90001FE0FDEF61
:1010F4005D6005900019800990001DE0700D90005E
:101104001BE0FEA3E0FF121406802990001EE0FFFE
:10111400900013E02FFF900012E03400CF2401CFA1
:101124003400FEE9FD900015E02DFD900014E0343C
:101134000012142F90001EE004F0809209E964105C
:0511440060030210949D
:011149002283
:0E0D4600900012EEF0A3EFF0A3ECF0A3EDF09E
:100D5400E490001EF0A3F0A3F0A3F0A3F0A3F0909E
:100D64000026F0A37421F0E490001EF0A3F090009C
:100D74001EE0FEA3E0FFC39421EE94005051121232
:100D84001FFD90062F75F022EF1212D0EE75F0229F
:100D9400A42583F583E493B5052590000112123848
:100DA400FF90001EE0FCA3E090063075F0221212C2
:100DB400D0EC75F022A42583F583E4936F60109042
:100DC400001FE004F070A790001EE004F0809F90E4
:100DD4000026E0FEA3E0FFC390001FE09F90001EEA
:100DE400E09E4003020F01E4900020F0A3F0900085
:100DF40012E0FEA3E0FF12141C900020E0FCA3E02C
:100E0400FD25E0FFEC33FE90001EE0FAA3E090061F
:100E14003175F0221212D0EA75F022A42583F583ED
:100E2400E5822FF582E5833EF583E493FAED25E030
:100E3400FFEC33FE90001EE0FCA3E090063275F058
:100E4400221212D0EC75F022A42583F583E5822FBB
:100E5400F582E5833EF583E493FFEAFE900024EEF9
:100E6400F0A3EFF0E4900022F0A3F0900022E0FE63
:100E7400A3E0FFC39410EE94005062E47E80A807C0
:100E8400088005CEC313CE13D8F9FF900024E05E8A
:100E9400FEA3E05F4E6005900019800990001DE0FC
:100EA400700D90001BE0FEA3E0FF121406801D905D
:100EB4000022E0FEA3E0FF900013E02FFF90001259
:100EC400E03ECF2401CF3400FE12141C900023E036
:100ED40004F07006900022E004F0020E6F900021EE
:100EE400E004F07006900020E004F0C3900021E0DC
:0D0EF4009410900020E094005003020DF2D5
:010F010022CD
:10114A00900006EEF0A3EFF0A3ECF0A3EDF0A3EB12
:10115A00F0A3EAF0A3E9F090000AE0FBA3E0FAA307
:10116A00E0F912121FFF700302121EEFD39480904F
:10117A000008E0FCA3E0FD404890000DE0FFA3E07A
:10118A00900019CFF0A3EFF090000FE0FFA3E090DA
:10119A00001BCFF0A3EFF0900011E090001DF0903B
:1011AA000006E0FEA3E0FF120D46900007E02410BF
:1011BA00F0900006E03400F090000BE475F0028035
:1011CA004DA3E0FBA3E0FAA3E0F9A3E0FFA3E090BC
:1011DA000019CFF0A3EFF090000FE0FFA3E090001A
:1011EA001BCFF0A3EFF0900011E090001DF09000EB
:1011FA0006E0FEA3E0FF121066900007E02408F064
:10120A00900006E03400F090000BE475F001121231
:05121A00BA021161227F
:0E12DC00900028EEF0A3EFF0A3ECF0A3EDF0ED
:1012EA007C037DE8AF03AE02121265EF2430A3F04F
:1012FA007C037DE8AF03AE021212657E007F64CFE5
:10130A00CDCFCECCCE121265EF2430A3F07C037D74
:10131A00E8AF03AE021212657E007F64CFCDCFCE56
:10132A00CCCE1212657E007F0ACFCDCFCECCCE12A4
:10133A001265EF2430A3F0AE02AF037C037DE812FE
:10134A0012657E007F64CFCDCFCECCCE1212657EE1
:10135A00007F0ACFCDCFCECCCE121265ED2430A3BA
:10136A00F0E4A3F0900028E0FEA3E0FFA3E0FCA3D2
:10137A00E0FD7B017A00792CE490000DF0A3F0A344
:0D138A0074FFF0A374E0F0E4A3F002114A38
:100A9100E4900000F0A3F0F9900004F0A3F0C292FA
:100AA100121470D2927F107E27121474120F021248
:100AB100149F1214337BFF7A00790390000D74F8B0
:100AC100F0A3E4F0A374FFF0A374E0F0E4A3F0FD5D
:100AD100FC7F4412114A7BFF7A00791190000D745A
:100AE100F8F0A3E4F0A374FFF0A374E0F0A37401A1
:100AF100F07D287C007F347E0012114A7BFF7A0052
:100B0100792390000D74FFF0A374E0F0A374F8F062
:100B1100A3E4F0A3F07D50FC7F0CFE12114A7D7816
:100B21007C00E4FFFE121430E4900000F0A3F0F921
:100B3100FBFAE4900002F0A3F0900002E0FEA3E0D3
:100B4100FFC394F0EE9400501DEF7803CEC313CE93
:100B510013D8F91213E8900003E004F070DB900061
:100B610002E004F080D30BBB00010AEB64144A706D
:100B7100C1900000741FF0A3743FF0791FE4FAFBE9
:100B8100E4900002F0A3F0900002E0FCA3E0FDAECF
:100B9100047802CEC313CE13D8F9FFC3743F9F90DC
:100BA1000001F0EDAE047803CEC313CE13D8F9FFE4
:100BB100C3741F9FF99000011213ED900003E0042C
:100BC100F07006900002E004F0C3900003E094F09E
:100BD100900002E0940040AF0BBB00010AEB6414EB
:100BE1004A709DE4900000F0A3F0F9FAFBE4900054
:100BF10002F0A3F0900002E0FEA3E0FFC394F0EE48
:100C010094005021EF7802CEC313CE13D8F990008F
:100C110001F01213EE900003E004F070D79000028F
:100C2100E004F080CF0BBB00010AEB64144A70BDF5
:100C3100900000741FF0A3743FF0791FE4FAFBE405
:100C4100900002F0A3F0900002E0FEA3E0FFC39445
:100C5100F0EE94005027EF7803CEC313CE13D8F9EA
:100C6100FFC3741F9F900000F0F91213EC90000372
:100C7100E004F070D1900002E004F080C90BBB00E9
:100C8100010AEB64144A70B7E4900000F0A3F0F994
:100C9100FAFBE4900002F0A3F0900002E0FEA3E072
:100CA100FFC394F0EE94005021EF7803CEC313CE2E
:100CB10013D8F9F99000011213ED900003E004F04C
:100CC10070D7900002E004F080CF0BBB00010AEB6B
:100CD10064144A70BD900000741FF0A3743FF07952
:100CE1001FE4FAFBE4900002F0A3F0900002E0FCA4
:100CF100A3E0FDAE047802CEC313CE13D8F9FFC32F
:100D0100743F9F900001F0EDAE047803CEC313CE83
:100D110013D8F9FFC3741F9F1213E8900003E00476
:100D2100F07006900002E004F0C3900003E094F03C
:100D3100900002E0940040B30BBB00010AEB641485
:050D41004A70A180FED4
:0300000002149354
:0C149300787FE4F6D8FD758107020A910D
:10121F00BB010689828A83E0225002E722BBFE02CD
:09122F00E32289828A83E4932200
:10123800BB010CE58229F582E5833AF583E022506B
:1012480006E92582F8E622BBFE06E92582F8E222B5
:0D125800E58229F582E5833AF583E49322CF
:10126500BC000BBE0029EF8DF084FFADF022E4CC6D
:10127500F875F008EF2FFFEE33FEEC33FCEE9DEC36
:10128500984005FCEE9DFE0FD5F0E9E4CEFD22ED7C
:10129500F8F5F0EE8420D21CFEADF075F008EF2FC6
:1012A500FFED33FD4007985006D5F0F222C398FDB7
:0512B5000FD5F0EA2254
:1012BA00C5F0F8A3E028F0C5F0F8E58215827002BF
:0612CA001583E038F0225C
:0C12D000A42582F582E5F03583F5832229
:00000001FF
